:100000000C9434000C9449000C9449000C94490061
:100010000C9449000C9449000C9449000C9449003C
:100020000C9449000C9449000C9449000C9449002C
:100030000C9449000C9449000C9449000C9449001C
:100040000C9449000C9449000C9449000C9449000C
:100050000C9449000C9449000C9449000C944900FC
:100060000C9449000C94490011241FBECFEFD8E036
:10007000DEBFCDBF11E0A0E0B1E0EEEBF0E002C0EA
:1000800005900D92A230B107D9F70E944B000C9455
:100090005D000C940000259A84B114B890E285B1FB
:1000A000892785B92AEA36EE46E981E021503040B9
:0E00B00040408040D9F70000F2CFF894FFCF17
:0200BE00102709
:00000001FF
