:100000000C9434000C9451000C9451000C94510049
:100010000C9451000C9451000C9451000C9451001C
:100020000C9451000C9451000C9451000C9451000C
:100030000C9451000C9451000C9451000C945100FC
:100040000C9451000C9451000C9451000C945100EC
:100050000C9451000C9451000C9451000C945100DC
:100060000C9451000C94510011241FBECFEFD8E026
:10007000DEBFCDBF11E0A0E0B1E0E6E4F1E002C0F8
:1000800005900D92A632B107D9F721E0A6E2B1E0C2
:1000900001C01D92AC32B207E1F70E9453000C94EC
:1000A000A1000C940000259A90E285B1892785B9BA
:1000B0002AEA36EE46E981E0215030404040804057
:1000C000D9F70000F2CF0F931F93CF93DF938C01EA
:1000D000EB0180E091E00E947500C8018C0F9D1F2C
:1000E000DF91CF911F910F9108950F931F93CF939D
:1000F000DF93E0912801F0912901238121FF13C0B2
:10010000EC0100E010E089916091280170912901D3
:10011000DB011896ED91FC91199781110CC08AE0D2
:100120000995892B11F00FEF1FEFC801DF91CF91D7
:100130001F910F9108950995892B29F30FEF1FEF58
:06014000E2CFF894FFCFAE
:1001460057652061726520696E73696465206F6604
:100156002074686520616464456D2066756E6374FD
:06016600696F6E2000002D
:00000001FF
